:100000000C942A000C943F000C943F000C943F0089
:100010000C943F000C943F000C943F000C943F0064
:100020000C943F000C943F000C943F000C943F0054
:100030000C943F000C943F000C943F000C943F0044
:100040000C943F000C943F000C943F000C943F0034
:100050000C943F0011241FBECFE5D8E0DEBFCDBF1A
:1000600011E0A0E6B0E0EEE3FEE302C005900D92E1
:10007000A83AB107D9F70E94391D0C941D1F0C94A2
:100080000000EF92FF920F931F937B018C0120E001
:1000900030E040E05FE40E94ED0388238CF0C8016B
:1000A000B70120E030E040E05FE40E94B9010E9427
:1000B000AB049B01AC01205030404040504806C08A
:1000C000C801B7010E94AB049B01AC01B901CA0190
:1000D0001F910F91FF90EF900895A0E0B0E0E3E74B
:1000E000F0E00C94E61EDC012B01FA019C919230A9
:1000F00008F439C1EB018881823008F433C19430AF
:1001000069F4843009F02FC111969C91119789816F
:10011000981709F428C1A0E6B0E025C1843009F49D
:1001200021C18230A9F4923009F01DC19A01AD01BC
:1001300088E0EA010990AE01E90109929E0181502F
:10014000C1F7E201898111969C918923818308C1BD
:10015000923009F407C112962D903C901397EB0151
:100160008A819B811496AD90BD90CD90DC901797BD
:10017000EC80FD800E811F819101281B390BB90194
:1001800037FF04C066277727621B730B6032710547
:100190000CF061C0121613066CF537014801062EEB
:1001A00004C096948794779467940A94D2F721E0D8
:1001B00030E040E050E004C0220F331F441F551FC1
:1001C0006A95D2F721503040404050402E213F21C7
:1001D00040235123211531054105510521F021E02E
:1001E00030E040E050E079018A01E628F72808294C
:1001F00019293CC0232BD1F1260E371E35014601AB
:10020000062E04C096948794779467940A94D2F744
:1002100021E030E040E050E004C0220F331F441FD3
:10022000551F6A95D2F721503040404050402A2156
:100230003B214C215D21211531054105510521F05E
:1002400021E030E040E050E059016A01A628B728DB
:10025000C828D9280BC0821593052CF01C01AA24AC
:10026000BB24650103C0EE24FF24870111969C91F5
:10027000D20111968C91981709F445C0992339F051
:10028000A80197012A193B094C095D0906C0A6017E
:1002900095012E193F09400B510B57FD08C01182E3
:1002A0003382228224833583468357831DC081E0B5
:1002B00081833382228288279927DC01821B930B5A
:1002C000A40BB50B84839583A683B7830DC0220F3F
:1002D000331F441F551F24833583468357838281F0
:1002E000938101979383828324813581468157814D
:1002F000DA01C9010197A109B1098F5F9F4FAF4F83
:10030000BF4328F30BC0918333822282EA0CFB1C8B
:100310000C1D1D1DE482F5820683178383E0808314
:10032000248135814681578157FF1AC0C901AA2708
:1003300097FDA095BA2F81709070A070B0705695FF
:10034000479537952795822B932BA42BB52B848328
:100350009583A683B7838281938101969383828359
:10036000DF0101C0D201CD01CDB7DEB7E2E10C94CF
:10037000021FA0E2B0E0EFEBF1E00C94F21E698303
:100380007A838B839C832D833E834F835887E9E058
:10039000EE2EF12CEC0EFD1ECE010196B7010E944F
:1003A0009C068E010F5E1F4FCE010596B8010E947C
:1003B0009C068A8991E089278A8BC701B801AE0122
:1003C000475E5F4F0E946D000E94C705A096E6E061
:1003D0000C940E1FA0E2B0E0E0EFF1E00C94F21EEE
:1003E00069837A838B839C832D833E834F835887D5
:1003F000F9E0EF2EF12CEC0EFD1ECE010196B701B7
:100400000E949C068E010F5E1F4FCE010596B8011B
:100410000E949C06C701B801AE01475E5F4F0E9473
:100420006D000E94C705A096E6E00C940E1FA0E2A6
:10043000B0E0EDE1F2E00C94E61E69837A838B83F1
:100440009C832D833E834F835887CE010196BE0146
:10045000675F7F4F0E949C06CE010596BE016F5ECE
:100460007F4F0E949C069985923088F0898982305E
:10047000C8F0943019F4823051F404C0843029F467
:10048000923081F480E690E0C6C0923049F420E0DA
:100490009A858A89981321E02A87CE010996BBC0E4
:1004A000823049F420E09A858A89981321E02A8BCA
:1004B000CE014196B0C02D843E844F8458886D880B
:1004C0007E888F88988CEE24FF248701AA24BB2481
:1004D000650140E050E060E070E0E0E0F0E0C10184
:1004E00081709070892BE9F0E60CF71C081D191D2E
:1004F0009A01AB012A0D3B1D4C1D5D1D80E090E073
:10050000A0E0B0E0E614F7040805190520F481E046
:1005100090E0A0E0B0E0BA01A901480F591F6A1F9E
:100520007B1FAA0CBB1CCC1CDD1C97FE08C081E005
:1005300090E0A0E0B0E0A82AB92ACA2ADB2A3196C6
:10054000E032F10549F0660C771C881C991C569422
:10055000479437942794C3CFFA85EA892B893C893D
:100560008B859C85280F391F2E5F3F4F17C0CA010E
:1005700081709070892B61F016950795F794E79438
:1005800080E090E0A0E0B0E8E82AF92A0A2B1B2BD3
:1005900076956795579547952F5F3F4F77FDE7CF46
:1005A0000CC0440F551F661F771F17FD4160EE0CEE
:1005B000FF1C001F111F21503040403090E05907B0
:1005C00090E0690790E4790760F32B8F3C8FDB01A3
:1005D000CA018F779070A070B07080349105A1052A
:1005E000B10561F447FD0AC0E114F10401051105EC
:1005F00029F0405C5F4F6F4F7F4F40781A8EFE1797
:1006000011F081E08A8F4D8F5E8F6F8F78A383E02A
:10061000898FCE0149960E94C705A096E2E10C940D
:10062000021FA8E1B0E0E7E1F3E00C94EE1E69835D
:100630007A838B839C832D833E834F835887B9E0D5
:10064000EB2EF12CEC0EFD1ECE010196B7010E949F
:100650009C068E010F5E1F4FCE010596B8010E94C9
:100660009C062985223008F47EC03989323010F486
:10067000B8017CC08A859A8989278A87243011F03D
:10068000223031F4231709F06EC060E670E06EC0CE
:10069000343039F41D861E861F86188A1C861B86F8
:1006A00004C0323021F484E08987B7015FC02B8514
:1006B0003C858B899C89281B390B3C872B87ED84D3
:1006C000FE840F851889AD88BE88CF88D88CEA143F
:1006D000FB040C051D0540F4EE0CFF1C001F111F50
:1006E000215030403C872B8720E030E040E050E054
:1006F00080E090E0A0E0B0E460E070E0EA14FB0489
:100700000C051D0540F0282B392B4A2B5B2BEA18D2
:10071000FB080C091D09B695A79597958795EE0CD2
:10072000FF1C001F111F6F5F7F4F6F31710531F785
:10073000DA01C9018F779070A070B0708034910594
:10074000A105B10561F427FD0AC0E114F10401051A
:10075000110529F0205C3F4F4F4F5F4F20782D87C8
:100760003E874F87588BBE01675F7F4FCB010E944A
:10077000C7056896EAE00C940A1FA8E1B0E0E3EC34
:10078000F3E00C94F21E69837A838B839C832D8320
:100790003E834F83588789E0E82EF12CEC0EFD1E36
:1007A000CE010196B7010E949C068E010F5E1F4F7D
:1007B000CE010596B8010E949C068985823040F0E2
:1007C0008989823028F0C701B8010E94140701C04E
:1007D0008FEF6896E6E00C940E1FA8E1B0E0E3EF1F
:1007E000F3E00C94F21E69837A838B839C832D83C0
:1007F0003E834F83588789E0E82EF12CEC0EFD1ED6
:10080000CE010196B7010E949C068E010F5E1F4F1C
:10081000CE010596B8010E949C068985823040F081
:100820008989823028F0C701B8010E94140701C0ED
:100830008FEF6896E6E00C940E1FA8E1B0E0E3E2CB
:10084000F4E00C94F21E69837A838B839C832D835E
:100850003E834F83588789E0E82EF12CEC0EFD1E75
:10086000CE010196B7010E949C068E010F5E1F4FBC
:10087000CE010596B8010E949C068985823040F021
:100880008989823028F0C701B8010E94140701C08D
:1008900081E06896E6E00C940E1FA8E0B0E0E3E586
:1008A000F4E00C94EF1E9B01AC0183E08983DA0134
:1008B000C9018827B7FD83959927AA27BB27B82E9A
:1008C000211531054105510519F482E089833AC0AB
:1008D0008823A9F0203080E0380780E0480780E8CE
:1008E000580729F460E070E080E09FEC30C0EE240F
:1008F000FF248701E21AF30A040B150B02C07901E9
:100900008A018EE1C82ED12CDC82CB82ED82FE8260
:100910000F831887C801B7010E9478050197181640
:10092000190684F4082E04C0EE0CFF1C001F111FD2
:100930000A94D2F7ED82FE820F831887C81AD90A6B
:10094000DC82CB82BA82CE0101960E94C70528962E
:10095000E9E00C940B1FACE0B0E0E1EBF4E00C94A8
:10096000F61E69837A838B839C83CE010196BE0138
:100970006B5F7F4F0E949C068D81823061F18230D7
:1009800050F1843021F48E81882351F12EC02F81C3
:10099000388537FD20C06E812F3131051CF066236C
:1009A000F9F023C08EE190E0821B930B29853A85F4
:1009B0004B855C8504C056954795379527958A9554
:1009C000D2F76623B1F050954095309521953F4F71
:1009D0004F4F5F4F0EC020E030E040E050E009C0D4
:1009E0002FEF3FEF4FEF5FE704C020E030E040E043
:1009F00050E8B901CA012C96E2E00C94121FA8E05D
:100A0000B0E0E5E0F5E00C94EE1E7B018C01611591
:100A100071058105910519F482E0898360C083E046
:100A200089838EE1C82ED12CDC82CB82ED82FE82BE
:100A30000F831887C801B7010E947805FC01319720
:100A4000F7FF3BC0222733272E1B3F0B57016801BE
:100A5000022E04C0D694C794B794A7940A94D2F7F0
:100A600040E050E060E070E081E090E0A0E0B0E0C5
:100A700004C0880F991FAA1FBB1F2A95D2F70197A0
:100A8000A109B1098E219F21A023B1230097A105BF
:100A9000B10521F041E050E060E070E04A295B29B7
:100AA0006C297D294D835E836F8378878EE190E08A
:100AB0008E1B9F0B9C838B8312C0309781F00E2E70
:100AC00004C0EE0CFF1C001F111F0A94D2F7ED8228
:100AD000FE820F831887CE1ADF0ADC82CB821A824D
:100AE000CE0101960E94C7052896EAE00C940A1FE1
:100AF000EF92FF920F931F937B018C0180E0E81629
:100B000080E0F80681E0080780E0180788F48FEF9E
:100B1000E816F1040105110531F028F088E090E0B5
:100B2000A0E0B0E017C080E090E0A0E0B0E012C02C
:100B300080E0E81680E0F80680E0080781E018070A
:100B400028F088E190E0A0E0B0E004C080E190E00F
:100B5000A0E0B0E020E230E040E050E0281B390B9C
:100B60004A0B5B0B04C016950795F794E7948A959A
:100B7000D2F7F701E859FF4F8081281B310941095D
:100B80005109C9011F910F91FF90EF900895DF92D5
:100B9000EF92FF920F931F93FC01E480F580068192
:100BA0001781D1808081823048F480E090E0A0E11C
:100BB000B0E0E82AF92A0A2B1B2BA5C0843009F4DF
:100BC0009FC0823021F4EE24FF24870105C0E11488
:100BD000F1040105110519F4E0E0F0E096C062812E
:100BE00073819FEF623879070CF05BC022E83FEF1A
:100BF000261B370B2A3131052CF020E030E040E095
:100C000050E02AC0B801A701022E04C0769567956E
:100C1000579547950A94D2F781E090E0A0E0B0E0C4
:100C200004C0880F991FAA1FBB1F2A95D2F70197EE
:100C3000A109B1098E219F21A023B1230097A1050D
:100C4000B10521F081E090E0A0E0B0E09A01AB01B5
:100C5000282B392B4A2B5B2BDA01C9018F77907037
:100C6000A070B07080349105A105B10539F427FF5B
:100C700009C0205C3F4F4F4F5F4F04C0215C3F4F86
:100C80004F4F5F4FE0E0F0E02030A0E03A07A0E0F7
:100C90004A07A0E45A0710F0E1E0F0E079018A0188
:100CA00027C06038710564F5FB01E158FF4FD8019A
:100CB000C7018F779070A070B07080349105A10546
:100CC000B10539F4E7FE0DC080E490E0A0E0B0E0AB
:100CD00004C08FE390E0A0E0B0E0E80EF91E0A1F28
:100CE0001B1F17FF05C016950795F794E7943196DB
:100CF00087E016950795F794E7948A95D1F705C094
:100D0000EE24FF248701EFEFF0E06E2F6795662752
:100D10006795902F9F77D794DD24D7948E2F869553
:100D2000492F462B582F5D29B701CA011F910F91FA
:100D3000FF90EF90DF900895FC01DB01408151812D
:100D40002281622F6F7770E0221F2227221F93815A
:100D5000892F880F822B282F30E0991F9927991F00
:100D600011969C93119721153105A9F5411551054F
:100D70006105710511F482E037C082E89FEF139698
:100D80009C938E9312979A01AB0167E0220F331F59
:100D9000441F551F6A95D1F783E08C930DC0220F35
:100DA000331F441F551F12968D919C9113970197E5
:100DB00013969C938E931297203080E0380780E042
:100DC000480780E4580758F314962D933D934D93AC
:100DD0005C93179708952F3F310579F4411551051C
:100DE0006105710519F484E08C93089564FF03C0D4
:100DF00081E08C9312C01C9210C02F573040139684
:100E00003C932E93129783E08C9387E0440F551FF9
:100E1000661F771F8A95D1F7706414964D935D9382
:100E20006D937C93179708951F93DC01FB019C91B0
:100E3000923008F447C08081823008F443C0943077
:100E400051F411961C91843099F58181682F70E0DE
:100E5000611B71093FC0843021F0923031F482303F
:100E6000B9F18181882389F12DC011961C911197C8
:100E70008230F1F081811817D9F412962D913C91AE
:100E80001397828193818217930794F0281739076B
:100E9000BCF014968D919D910D90BC91A02D248154
:100EA000358146815781281739074A075B0718F4AF
:100EB000112341F00AC082179307A407B50740F435
:100EC000112319F061E070E005C06FEF7FEF02C001
:100ED00060E070E0CB011F910895DF93CF93CDB711
:100EE000DEB783E00E94D80782E00E943F0880E0DE
:100EF0000E94BC078FE70E94CA070E9492070E94C7
:100F0000AE07CF91DF910895DF93CF93CDB7DEB7D2
:100F1000A9E5B0E0E9E5F0E0808181608C93CF91B4
:100F2000DF910895DF93CF93CDB7DEB7A9E5B0E0A9
:100F3000E9E5F0E080818E7F8C93CF91DF91089579
:100F4000DF93CF93CDB7DEB7A9E5B0E0E9E5F0E0F8
:100F5000808182608C93CF91DF910895DF93CF934E
:100F6000CDB7DEB7A9E5B0E0E9E5F0E080818D7F9F
:100F70008C93CF91DF910895DF93CF930F92CDB7EC
:100F8000DEB78983E2E5F0E0898180830F90CF911D
:100F9000DF910895DF93CF930F92CDB7DEB78983AA
:100FA000ECE5F0E0898180830F90CF91DF91089587
:100FB000DF93CF9300D00F92CDB7DEB789838981BD
:100FC000282F30E03B832A838A819B8181309105E1
:100FD00021F12A813B81223031052CF48A819B81C9
:100FE000009761F046C02A813B812230310521F112
:100FF0008A819B818330910571F13BC0A3E5B0E00C
:10100000E3E5F0E08081877F8C93A3E5B0E0E3E542
:10101000F0E080818F7B8C932CC0A3E5B0E0E3E50A
:10102000F0E08081877F8C93A3E5B0E0E3E5F0E01A
:10103000808180648C931DC0A3E5B0E0E3E5F0E01F
:10104000808188608C93A3E5B0E0E3E5F0E08081E7
:101050008F7B8C930EC0A3E5B0E0E3E5F0E08081E8
:1010600088608C93A3E5B0E0E3E5F0E080818064E4
:101070008C930F900F900F90CF91DF910895DF9395
:10108000CF9300D00F92CDB7DEB789838981282F07
:1010900030E03B832A838A819B818130910521F155
:1010A0002A813B81223031052CF48A819B81009773
:1010B00061F046C02A813B812230310521F18A81CD
:1010C0009B818330910571F13BC0A3E5B0E0E3E57E
:1010D000F0E080818F7E8C93A3E5B0E0E3E5F0E063
:1010E00080818F7D8C932CC0A3E5B0E0E3E5F0E038
:1010F000808180618C93A3E5B0E0E3E5F0E080813E
:101100008F7D8C931DC0A3E5B0E0E3E5F0E0808126
:101110008F7E8C93A3E5B0E0E3E5F0E08081806210
:101120008C930EC0A3E5B0E0E3E5F0E08081806140
:101130008C93A3E5B0E0E3E5F0E0808180628C93DE
:101140000F900F900F90CF91DF910895DF93CF9381
:10115000CDB7DEB782E00E94CC08CF91DF91089531
:10116000DF93CF93CDB7DEB7A3E5B0E0E3E5F0E0E2
:1011700080818E7F8C93A3E5B0E0E3E5F0E0808191
:101180008D7F8C93A3E5B0E0E3E5F0E080818B7F79
:101190008C93CF91DF910895DF93CF9300D00F927E
:1011A000CDB7DEB789838981282F30E03B832A833E
:1011B0008A819B818430910509F46BC02A813B812F
:1011C000253031058CF48A819B8182309105A9F10B
:1011D0002A813B81233031050CF045C08A819B81F7
:1011E00081309105A1F0ACC02A813B8126303105C8
:1011F00009F47BC08A819B81863091050CF45FC025
:101200002A813B812730310509F485C099C0A3E5C7
:10121000B0E0E3E5F0E0808181608C93A3E5B0E08D
:10122000E3E5F0E080818D7F8C93A3E5B0E0E3E51A
:10123000F0E080818B7F8C9383C0A3E5B0E0E3E591
:10124000F0E080818E7F8C93A3E5B0E0E3E5F0E0F1
:10125000808182608C93A3E5B0E0E3E5F0E08081DB
:101260008B7F8C936DC0A3E5B0E0E3E5F0E0808177
:1012700081608C93A3E5B0E0E3E5F0E080818260DB
:101280008C93A3E5B0E0E3E5F0E080818B7F8C9365
:1012900057C0A3E5B0E0E3E5F0E080818E7F8C935A
:1012A000A3E5B0E0E3E5F0E080818D7F8C93A3E5DA
:1012B000B0E0E3E5F0E0808184608C9341C0A3E579
:1012C000B0E0E3E5F0E0808181608C93A3E5B0E0DD
:1012D000E3E5F0E080818D7F8C93A3E5B0E0E3E56A
:1012E000F0E0808184608C932BC0A3E5B0E0E3E55F
:1012F000F0E080818E7F8C93A3E5B0E0E3E5F0E041
:10130000808182608C93A3E5B0E0E3E5F0E080812A
:1013100084608C9315C0A3E5B0E0E3E5F0E0808144
:1013200081608C93A3E5B0E0E3E5F0E0808182602A
:101330008C93A3E5B0E0E3E5F0E0808184608C93DA
:101340000F900F900F90CF91DF910895DF93CF937F
:10135000CDB7DEB78EE00E94F20982E00E94150C44
:1013600080E00E947C0C80E090E00E94E30C8FEC17
:1013700097E00E94F50C80E090E00E94070D8FE15D
:101380009EE40E94190D0E94390D0E94550D0E9485
:10139000710DCF91DF910895DF93CF93CDB7DEB775
:1013A00082E00E947F0DCF91DF910895DF93CF936C
:1013B000CDB7DEB7AEE4B0E0EEE4F0E080818E7F42
:1013C0008C93AEE4B0E0EEE4F0E080818D7F8C930E
:1013D000AEE4B0E0EEE4F0E080818B7F8C93CF91BF
:1013E000DF910895DF93CF9300D00F92CDB7DEB792
:1013F00089838981282F30E03B832A838A819B81DE
:101400008730910509F424C12A813B8128303105B8
:101410004CF58A819B818330910509F4A5C02A810E
:101420003B81243031058CF48A819B818130910588
:1014300009F460C02A813B81223031050CF077C06D
:101440008A819B810097C9F1EAC12A813B812530BD
:10145000310509F4C3C08A819B81863091050CF067
:10146000DAC09FC02A813B812B30310509F464C169
:101470008A819B818C3091056CF42A813B812930D3
:10148000310509F41FC18A819B818A3091050CF0D6
:1014900036C1FBC02A813B812E30310509F486C15B
:1014A0008A819B818F30910509F49DC12A813B81FE
:1014B0002C30310509F45DC1B2C1AFE4B0E0EFE416
:1014C000F0E080818E7F8C93AFE4B0E0EFE4F0E059
:1014D00080818D7F8C93AEE4B0E0EEE4F0E080811B
:1014E000877F8C93AEE4B0E0EEE4F0E080818F7E05
:1014F0008C9395C1AFE4B0E0EFE4F0E080818D7FA4
:101500008C93AEE4B0E0EEE4F0E08081877F8C93D2
:10151000AEE4B0E0EEE4F0E080818F7E8C93AFE447
:10152000B0E0EFE4F0E0808181608C9378C1AFE4BB
:10153000B0E0EFE4F0E080818E7F8C93AEE4B0E029
:10154000EEE4F0E08081877F8C93AEE4B0E0EEE4DF
:10155000F0E080818F7E8C93AFE4B0E0EFE4F0E0C8
:10156000808182608C935BC1AFE4B0E0EFE4F0E097
:10157000808181608C93AFE4B0E0EFE4F0E08081A3
:1015800082608C93AEE4B0E0EEE4F0E08081877F8F
:101590008C93AEE4B0E0EEE4F0E080818F7E8C933B
:1015A0003EC1AFE4B0E0EFE4F0E080818E7F8C9349
:1015B000AFE4B0E0EFE4F0E080818D7F8C93AEE4A7
:1015C000B0E0EEE4F0E0808188608C93AEE4B0E0BF
:1015D000EEE4F0E080818F7E8C9321C1AFE4B0E037
:1015E000EFE4F0E0808181608C93AFE4B0E0EFE461
:1015F000F0E080818D7F8C93AEE4B0E0EEE4F0E02B
:10160000808188608C93AEE4B0E0EEE4F0E080810D
:101610008F7E8C9304C1AFE4B0E0EFE4F0E0808112
:101620008E7F8C93AFE4B0E0EFE4F0E080818260E5
:101630008C93AEE4B0E0EEE4F0E0808188608C93BF
:10164000AEE4B0E0EEE4F0E080818F7E8C93E7C002
:10165000AFE4B0E0EFE4F0E0808181608C93AFE430
:10166000B0E0EFE4F0E0808182608C93AEE4B0E023
:10167000EEE4F0E0808188608C93AEE4B0E0EEE4CC
:10168000F0E080818F7E8C93CAC0AFE4B0E0EFE4DD
:10169000F0E080818E7F8C93AFE4B0E0EFE4F0E087
:1016A00080818D7F8C93AEE4B0E0EEE4F0E0808149
:1016B000877F8C93AEE4B0E0EEE4F0E0808180615F
:1016C0008C93ADC0AFE4B0E0EFE4F0E080818E7FBA
:1016D0008C93AFE4B0E0EFE4F0E0808182608C9323
:1016E000AEE4B0E0EEE4F0E08081877F8C93AEE47E
:1016F000B0E0EEE4F0E0808180618C9390C0AFE4D4
:10170000B0E0EFE4F0E080818E7F8C93AFE4B0E056
:10171000EFE4F0E0808182608C93AEE4B0E0EEE430
:10172000F0E08081877F8C93AEE4B0E0EEE4F0E0FF
:10173000808180618C9373C0AFE4B0E0EFE4F0E0AF
:10174000808181608C93AFE4B0E0EFE4F0E08081D1
:1017500082608C93AEE4B0E0EEE4F0E08081877FBD
:101760008C93AEE4B0E0EEE4F0E0808180618C9395
:1017700056C0AFE4B0E0EFE4F0E080818E7F8C9360
:10178000AFE4B0E0EFE4F0E080818D7F8C93AEE4D5
:10179000B0E0EEE4F0E0808188608C93AEE4B0E0ED
:1017A000EEE4F0E0808180618C9339C0AFE4B0E07A
:1017B000EFE4F0E0808181608C93AFE4B0E0EFE48F
:1017C000F0E080818D7F8C93AEE4B0E0EEE4F0E059
:1017D000808188608C93AEE4B0E0EEE4F0E080813C
:1017E00080618C931CC0AFE4B0E0EFE4F0E0808156
:1017F0008E7F8C93AFE4B0E0EFE4F0E08081826014
:101800008C93AEE4B0E0EEE4F0E0808188608C93ED
:10181000AEE4B0E0EEE4F0E0808180618C930F9064
:101820000F900F90CF91DF910895DF93CF9300D069
:101830000F92CDB7DEB789838981282F30E03B83B3
:101840002A838A819B818130910521F12A813B8104
:10185000223031052CF48A819B81009761F046C0CB
:101860002A813B812230310521F18A819B8183309D
:10187000910571F13BC0AFE4B0E0EFE4F0E08081AE
:101880008F7B8C93AFE4B0E0EFE4F0E080818F7762
:101890008C932CC0AFE4B0E0EFE4F0E08081806492
:1018A0008C93AFE4B0E0EFE4F0E080818F778C932D
:1018B0001DC0AFE4B0E0EFE4F0E080818F7B8C935B
:1018C000AFE4B0E0EFE4F0E0808180688C930EC07C
:1018D000AFE4B0E0EFE4F0E0808180648C93AFE4AB
:1018E000B0E0EFE4F0E0808180688C930F900F907F
:1018F0000F90CF91DF910895DF93CF9300D00F9297
:10190000CDB7DEB789838981282F30E03B832A83D6
:101910008A819B818130910521F12A813B8122308E
:1019200031052CF48A819B81009761F046C02A81A1
:101930003B812230310521F18A819B8183309105E1
:1019400071F13BC0AFE4B0E0EFE4F0E080818F7E66
:101950008C93AFE4B0E0EFE4F0E080818F7D8C9376
:101960002CC0AFE4B0E0EFE4F0E0808180618C93C4
:10197000AFE4B0E0EFE4F0E080818F7D8C931DC098
:10198000AFE4B0E0EFE4F0E080818F7E8C93AFE4D1
:10199000B0E0EFE4F0E0808180628C930EC0AFE4B1
:1019A000B0E0EFE4F0E0808180618C93AFE4B0E0E0
:1019B000EFE4F0E0808180628C930F900F900F90A5
:1019C000CF91DF910895DF93CF9300D0CDB7DEB7ED
:1019D0009A838983ECE4F0E089819A819183808302
:1019E0000F900F90CF91DF910895DF93CF9300D0A8
:1019F000CDB7DEB79A838983EAE4F0E089819A81E2
:101A0000918380830F900F90CF91DF910895DF93A2
:101A1000CF9300D0CDB7DEB79A838983E8E4F0E0B6
:101A200089819A81918380830F900F90CF91DF916C
:101A30000895DF93CF9300D0CDB7DEB79A83898323
:101A4000E6E4F0E089819A81918380830F900F9082
:101A5000CF91DF910895DF93CF93CDB7DEB7A9E59E
:101A6000B0E0E9E5F0E0808184608C93CF91DF9174
:101A70000895DF93CF93CDB7DEB7A9E5B0E0E9E5F0
:101A8000F0E080818B7F8C93CF91DF910895DF937D
:101A9000CF93CDB7DEB7A9E5B0E0E9E5F0E080810E
:101AA00080618C93CF91DF910895DF93CF93CDB771
:101AB000DEB7A9E5B0E0E9E5F0E080818F7E8C93A8
:101AC000CF91DF910895DF93CF93CDB7DEB7A9E52E
:101AD000B0E0E9E5F0E0808188608C93CF91DF9100
:101AE0000895DF93CF93CDB7DEB7A9E5B0E0E9E580
:101AF000F0E08081877F8C93CF91DF910895DF9311
:101B0000CF9300D00F92CDB7DEB789838981282F7C
:101B100030E03B832A838A819B818330910509F4DD
:101B200049C02A813B81243031055CF48A819B8144
:101B30008130910599F02A813B812230310521F1D4
:101B40007AC08A819B818430910509F449C02A8139
:101B50003B812530310509F459C06DC0AEE4B0E0D9
:101B6000EEE4F0E0808181608C93AEE4B0E0EEE4DE
:101B7000F0E080818D7F8C93AEE4B0E0EEE4F0E0A5
:101B800080818B7F8C9357C0AEE4B0E0EEE4F0E050
:101B900080818E7F8C93AEE4B0E0EEE4F0E0808153
:101BA00082608C93AEE4B0E0EEE4F0E080818B7F65
:101BB0008C9341C0AEE4B0E0EEE4F0E0808181605F
:101BC0008C93AEE4B0E0EEE4F0E0808182608C9330
:101BD000AEE4B0E0EEE4F0E080818B7F8C932BC02C
:101BE000AEE4B0E0EEE4F0E080818E7F8C93AEE472
:101BF000B0E0EEE4F0E080818D7F8C93AEE4B0E065
:101C0000EEE4F0E0808184608C9315C0AEE4B0E037
:101C1000EEE4F0E0808181608C93AEE4B0E0EEE42D
:101C2000F0E080818D7F8C93AEE4B0E0EEE4F0E0F4
:101C3000808184608C930F900F900F90CF91DF91F3
:101C40000895DF93CF93CDB7DEB780E00E947A0E80
:101C500080E00E94E10E80E00E945E0E80E00E9423
:101C60006C0E0E94560F0E94720FCF91DF91089563
:101C7000DF93CF93CDB7DEB784E00E94800FCF9182
:101C8000DF910895DF93CF93CDB7DEB7A5E4B0E041
:101C9000E5E4F0E080818E7F8C93A5E4B0E0E5E49C
:101CA000F0E080818D7F8C93A5E4B0E0E5E4F0E086
:101CB00080818B7F8C93CF91DF910895DF93CF93B9
:101CC0000F92CDB7DEB78983E4E4F0E089818083A9
:101CD0000F90CF91DF910895DF93CF930F92CDB7FF
:101CE000DEB78983E3E4F0E0898180830F90CF91B0
:101CF000DF910895DF93CF9300D00F92CDB7DEB779
:101D000089838981282F30E03B832A838A819B81C4
:101D10008130910521F12A813B81223031052CF45B
:101D20008A819B81009761F046C02A813B812230E5
:101D3000310521F18A819B818330910571F13BC08E
:101D4000A5E4B0E0E5E4F0E080818F7B8C93A5E42E
:101D5000B0E0E5E4F0E08081877F8C932CC0A5E4BF
:101D6000B0E0E5E4F0E0808180648C93A5E4B0E02D
:101D7000E5E4F0E08081877F8C931DC0A5E4B0E0AE
:101D8000E5E4F0E080818F7B8C93A5E4B0E0E5E4AE
:101D9000F0E0808188608C930EC0A5E4B0E0E5E4BB
:101DA000F0E0808180648C93A5E4B0E0E5E4F0E0AD
:101DB000808188608C930F900F900F90CF91DF916E
:101DC0000895DF93CF9300D00F92CDB7DEB789830C
:101DD0008981282F30E03B832A838A819B8181304F
:101DE000910521F12A813B81223031052CF48A8131
:101DF0009B81009761F046C02A813B8122303105EA
:101E000021F18A819B818330910571F13BC0A5E46A
:101E1000B0E0E5E4F0E080818F7E8C93A5E4B0E053
:101E2000E5E4F0E080818F7D8C932CC0A5E4B0E0E8
:101E3000E5E4F0E0808180618C93A5E4B0E0E5E426
:101E4000F0E080818F7D8C931DC0A5E4B0E0E5E4D7
:101E5000F0E080818F7E8C93A5E4B0E0E5E4F0E0D3
:101E6000808180628C930EC0A5E4B0E0E5E4F0E0F0
:101E7000808180618C93A5E4B0E0E5E4F0E08081AE
:101E800080628C930F900F900F90CF91DF91089507
:101E9000DF93CF93CDB7DEB7A9E5B0E0E9E5F0E099
:101EA000808180648C93CF91DF910895DF93CF93ED
:101EB000CDB7DEB7A9E5B0E0E9E5F0E080818F7B42
:101EC0008C93CF91DF910895DF93CF93CDB7DEB799
:101ED000A9E5B0E0E9E5F0E0808180688C93CF91DE
:101EE000DF910895DF93CF93CDB7DEB7A9E5B0E0DA
:101EF000E9E5F0E080818F778C93CF91DF910895B1
:101F0000DF93CF9300D00F92CDB7DEB7898389815D
:101F1000282F30E03B832A838A819B81843091057E
:101F200009F46BC02A813B81253031058CF48A810C
:101F30009B8182309105A9F12A813B8123303105B3
:101F40000CF045C08A819B8181309105A1F0ACC025
:101F50002A813B812630310509F47BC08A819B812F
:101F6000863091050CF45FC02A813B812730310512
:101F700009F485C099C0A5E4B0E0E5E4F0E0808113
:101F800081608C93A5E4B0E0E5E4F0E080818D7F92
:101F90008C93A5E4B0E0E5E4F0E080818B7F8C9346
:101FA00083C0A5E4B0E0E5E4F0E080818E7F8C930F
:101FB000A5E4B0E0E5E4F0E0808182608C93A5E4E4
:101FC000B0E0E5E4F0E080818B7F8C936DC0A5E408
:101FD000B0E0E5E4F0E0808181608C93A5E4B0E0BE
:101FE000E5E4F0E0808182608C93A5E4B0E0E5E474
:101FF000F0E080818B7F8C9357C0A5E4B0E0E5E4EE
:10200000F0E080818E7F8C93A5E4B0E0E5E4F0E021
:1020100080818D7F8C93A5E4B0E0E5E4F0E08081E1
:1020200084608C9341C0A5E4B0E0E5E4F0E08081F9
:1020300081608C93A5E4B0E0E5E4F0E080818D7FE1
:102040008C93A5E4B0E0E5E4F0E0808184608C93BB
:102050002BC0A5E4B0E0E5E4F0E080818E7F8C93B6
:10206000A5E4B0E0E5E4F0E0808182608C93A5E433
:10207000B0E0E5E4F0E0808184608C9315C0A5E4D5
:10208000B0E0E5E4F0E0808181608C93A5E4B0E00D
:10209000E5E4F0E0808182608C93A5E4B0E0E5E4C3
:1020A000F0E0808184608C930F900F900F90CF911F
:1020B000DF910895DF93CF93CDB7DEB7ADE2B0E007
:1020C000EDE2F0E0808180628C93ADE2B0E0EDE281
:1020D000F0E0808180618C93ADE2B0E0EDE2F0E071
:1020E0008081877F8C93ADE2B0E0EDE2F0E080810B
:1020F0008B7F8C93ADE2B0E0EDE2F0E08081816017
:102100008C93ADE2B0E0EDE2F0E080818D7F8C93C6
:10211000AEE2B0E0EEE2F0E080818E7F8C93ADE243
:10212000B0E0EDE2F0E080818F778C93ADE2B0E03B
:10213000EDE2F0E0808180648C93CF91DF9108958F
:10214000DF93CF93CDB7DEB7ADE2B0E0EDE2F0E0E4
:10215000808180628C93ADE2B0E0EDE2F0E08081BE
:102160008F7E8C93ADE2B0E0EDE2F0E08081877F7E
:102170008C93ADE2B0E0EDE2F0E080818B7F8C9358
:10218000ADE2B0E0EDE2F0E0808181608C93ADE201
:10219000B0E0EDE2F0E080818D7F8C93AEE2B0E0C4
:1021A000EEE2F0E080818E7F8C93ADE2B0E0EDE274
:1021B000F0E080818F778C93ADE2B0E0EDE2F0E06B
:1021C000808180648C93CF91DF910895DF93CF93CA
:1021D0000F92CDB7DEB78983EFE2F0E0898180838B
:1021E0000F90CF91DF910895DF93CF9300D0CDB7BB
:1021F000DEB79A838983EEE2F0E080818823DCF702
:10220000EFE2F0E08081E981FA8180830F900F9006
:10221000CF91DF910895DF93CF930F92CDB7DEB7C3
:102220008983EFE2F0E089818083EEE2F0E0808153
:102230008823DCF7EFE2F0E080810F90CF91DF910F
:102240000895DF93CF9300D000D0CDB7DEB7898358
:102250006A838981282F30E03C832B838B819C818A
:1022600081309105D1F02B813C81223031052CF455
:102270008B819C81009761F01EC02B813C812230B4
:10228000310581F08B819C818330910581F013C0F1
:10229000EAE3F0E08A8180830EC0E7E3F0E08A8120
:1022A000808309C0E4E3F0E08A81808304C0E1E335
:1022B000F0E08A8180830F900F900F900F90CF9164
:1022C000DF910895DF93CF93CDB7DEB727970FB691
:1022D000F894DEBF0FBECDBF89836A834B838B81A9
:1022E000813009F06FC08981282F30E03F832E8331
:1022F0008E819F818130910549F12E813F8122306D
:1023000031052CF48E819F81009761F0D2C02E811F
:102310003F812230310571F18E819F81833091059B
:10232000E9F1C7C0AAE3B0E0EAE3F0E08081482F1A
:102330008A81282F30E081E090E0022E02C0880FD1
:10234000991F0A94E2F7842B8C93B3C0A7E3B0E003
:10235000E7E3F0E08081482F8A81282F30E081E098
:1023600090E0022E02C0880F991F0A94E2F7842B96
:102370008C939FC0A4E3B0E0E4E3F0E08081482FB9
:102380008A81282F30E081E090E0022E02C0880F81
:10239000991F0A94E2F7842B8C938BC0A1E3B0E0E1
:1023A000E1E3F0E08081482F8A81282F30E081E04E
:1023B00090E0022E02C0880F991F0A94E2F7842B46
:1023C0008C9377C08B81882309F073C08981282F73
:1023D00030E03D832C838C819D818130910559F1C2
:1023E0002C813D81223031052CF48C819D81009718
:1023F00069F05FC02C813D812230310589F18C81EB
:102400009D818330910509F440C053C0AAE3B0E038
:10241000EAE3F0E08081482F8A81282F30E081E0D4
:1024200090E0022E02C0880F991F0A94E2F780956F
:1024300084238C933EC0A7E3B0E0E7E3F0E0808123
:10244000482F8A81282F30E081E090E0022E02C0E0
:10245000880F991F0A94E2F7809584238C9329C0F2
:10246000A4E3B0E0E4E3F0E08081482F8A81282FE4
:1024700030E081E090E0022E02C0880F991F0A949C
:10248000E2F7809584238C9314C0A1E3B0E0E1E3EC
:10249000F0E08081482F8A81282F30E081E090E0B1
:1024A000022E02C0880F991F0A94E2F780958423B8
:1024B0008C9327960FB6F894DEBF0FBECDBFCF9199
:1024C000DF910895DF93CF9300D000D00F92CDB766
:1024D000DEB789836A834B838981282F30E03D836F
:1024E0002C838C819D818130910509F447C02C811A
:1024F0003D81223031052CF48C819D81009771F053
:10250000CBC02C813D812230310509F467C08C811C
:102510009D818330910509F491C0BEC08B818130CB
:10252000A1F4ABE3B0E0EBE3F0E08081482F8A81D7
:10253000282F30E081E090E0022E02C0880F991F22
:102540000A94E2F7842B8C93A7C08B81882309F02F
:10255000A3C0ABE3B0E0EBE3F0E08081482F8A81D9
:10256000282F30E081E090E0022E02C0880F991FF2
:102570000A94E2F7809584238C938EC08B818130FE
:10258000A1F4A8E3B0E0E8E3F0E08081482F8A817D
:10259000282F30E081E090E0022E02C0880F991FC2
:1025A0000A94E2F7842B8C9377C08B81882309F0FF
:1025B00073C0A8E3B0E0E8E3F0E08081482F8A81AF
:1025C000282F30E081E090E0022E02C0880F991F92
:1025D0000A94E2F7809584238C935EC08B818130CE
:1025E000A1F4A5E3B0E0E5E3F0E08081482F8A8123
:1025F000282F30E081E090E0022E02C0880F991F62
:102600000A94E2F7842B8C9347C08B81882309F0CE
:1026100043C0A5E3B0E0E5E3F0E08081482F8A8184
:10262000282F30E081E090E0022E02C0880F991F31
:102630000A94E2F7809584238C932EC08B8181309D
:10264000A1F4A2E3B0E0E2E3F0E08081482F8A81C8
:10265000282F30E081E090E0022E02C0880F991F01
:102660000A94E2F7842B8C9317C08B818823A1F402
:10267000A2E3B0E0E2E3F0E08081482F8A81282FD6
:1026800030E081E090E0022E02C0880F991F0A948A
:10269000E2F7809584238C930F900F900F900F900A
:1026A0000F90CF91DF910895DF93CF9300D000D0AA
:1026B0000F92CDB7DEB78A836B838A81282F30E0F3
:1026C0003D832C834C815D814130510541F18C81EA
:1026D0009D818230910534F42C813D812115310595
:1026E00061F052C04C815D814230510551F18C81C5
:1026F0009D8183309105B9F147C0E9E3F0E0808125
:10270000282F30E08B81882F90E0A90102C05595D9
:1027100047958A95E2F7CA018170898335C0E6E35F
:10272000F0E08081282F30E08B81882F90E0A90194
:1027300002C0559547958A95E2F7CA018170898351
:1027400023C0E3E3F0E08081282F30E08B81882FE5
:1027500090E0A90102C0559547958A95E2F7CA0114
:102760008170898311C0E0E3F0E08081282F30E0A0
:102770008B81882F90E0A90102C0559547958A95D5
:10278000E2F7CA018170898389810F900F900F90C1
:102790000F900F90CF91DF910895DF93CF9300D0EA
:1027A00000D0CDB7DEB789836A838981282F30E0D6
:1027B0003C832B838B819C818130910549F12B8156
:1027C0003C81223031052CF48B819C81009761F093
:1027D0005AC02B813C812230310571F18B819C8163
:1027E00083309105E9F14FC0ABE3B0E0EBE3F0E0FB
:1027F0008081482F8A81282F30E081E090E0022EEE
:1028000002C0880F991F0A94E2F784278C933BC07B
:10281000A8E3B0E0E8E3F0E08081482F8A81282F28
:1028200030E081E090E0022E02C0880F991F0A94E8
:10283000E2F784278C9327C0A5E3B0E0E5E3F0E05E
:102840008081482F8A81282F30E081E090E0022E9D
:1028500002C0880F991F0A94E2F784278C9313C053
:10286000A2E3B0E0E2E3F0E08081482F8A81282FE4
:1028700030E081E090E0022E02C0880F991F0A9498
:10288000E2F784278C930F900F900F900F90CF91C9
:10289000DF910895DF93CF9300D000D0CDB7DEB79E
:1028A00089836A838981282F30E03C832B838B8145
:1028B0009C8181309105D1F02B813C812230310502
:1028C0002CF48B819C81009761F01EC02B813C8190
:1028D0002230310581F08B819C818330910581F01C
:1028E00013C0EBE3F0E08A8180830EC0E8E3F0E000
:1028F0008A81808309C0E5E3F0E08A81808304C097
:10290000E2E3F0E08A8180830F900F900F900F90A8
:10291000CF91DF910895DF93CF9300D000D000D006
:10292000CDB7DEB78A836B834C838A81282F30E052
:102930003E832D834D815E814130510541F18D8172
:102940009E818230910534F42D813E81211531051F
:1029500061F052C04D815E814230510551F18D814F
:102960009E8183309105B9F147C0EAE3F0E08081B0
:10297000282F30E08B81882F90E0A90102C0559567
:1029800047958A95E2F7CA018170898335C0E7E3EC
:10299000F0E08081282F30E08B81882F90E0A90122
:1029A00002C0559547958A95E2F7CA0181708983DF
:1029B00023C0E4E3F0E08081282F30E08B81882F72
:1029C00090E0A90102C0559547958A95E2F7CA01A2
:1029D0008170898311C0E1E3F0E08081282F30E02D
:1029E0008B81882F90E0A90102C0559547958A9563
:1029F000E2F7CA01817089838981882329F48A8159
:102A00006B814C810E94621226960FB6F894DEBF4D
:102A10000FBECDBFCF91DF910895DF93CF93CDB798
:102A2000DEB780E060E041E00E946211CF91DF916B
:102A30000895DF93CF93CDB7DEB7E2970FB6F89442
:102A4000DEBF0FBECDBF8AAB19AA8AA9882F90E03E
:102A5000AA2797FDA095BA2FBC01CD010E944D0475
:102A6000DC01CB01BC01CD012FE832EC41E351E4A4
:102A70000E941702DC01CB01BC01CD010E94410084
:102A8000DC01CB018C5089AB80E060E041E00E942A
:102A9000621289A9882F90E0A0E0B0E0BC01CD01CE
:102AA0000E94FF04DC01CB018DA79EA7AFA7B8ABA6
:102AB0006DA57EA58FA598A92BEA3AEA4AE250E4D3
:102AC0000E941702DC01CB0189A79AA7ABA7BCA77C
:102AD00069A57AA58BA59CA520E030E040E85FE3DE
:102AE0000E941D0488231CF481E088A791C069A579
:102AF0007AA58BA59CA520E030E04FE753E40E9427
:102B0000BD0318160CF07BC06DA57EA58FA598A9F6
:102B100020E030E04AE754E40E941103DC01CB01DD
:102B20008CA39DA3AEA3BFA36CA17DA18EA19FA1E9
:102B300020E030E04AEF54E40E941702DC01CB01B0
:102B400088A399A3AAA3BBA368A179A18AA19BA1E9
:102B500020E030E040E85FE30E941D0488232CF46D
:102B600081E090E09F8F8E8F3FC068A179A18AA1FC
:102B70009BA120E03FEF4FE757E40E94BD031816EA
:102B80004CF56CA17DA18EA19FA120E030E040E238
:102B900051E40E941702DC01CB01BC01CD010E946F
:102BA0004100DC01CB019F8F8E8F0FC088EC90E03D
:102BB0009D8F8C8F8C8D9D8D0197F1F79D8F8C8FC4
:102BC0008E8D9F8D01979F8F8E8F8E8D9F8D0097FD
:102BD00069F724C068A179A18AA19BA10E94410044
:102BE000DC01CB019F8F8E8F8E8D9F8D9B8F8A8F67
:102BF0008A8D9B8D0197F1F79B8F8A8F0FC069A5F6
:102C00007AA58BA59CA50E944100DC01CB0188A779
:102C100088A5898F898D8A95F1F7898F80E060E09A
:102C200040E00E94621289A9282F30E080E29EE4F1
:102C3000821B930BAA2797FDA095BA2FBC01CD014B
:102C40000E944D04DC01CB018D8B9E8BAF8BB88F26
:102C50006D897E898F89988D2BEA3AEA4AE250E4A1
:102C60000E941702DC01CB01898B9A8BAB8BBC8B4A
:102C700069897A898B899C8920E030E040E85FE3AC
:102C80000E941D0488231CF481E0888B91C069890F
:102C90007A898B899C8920E030E04FE753E40E94D9
:102CA000BD0318160CF07BC06D897E898F89988DC5
:102CB00020E030E04AE754E40E941103DC01CB013C
:102CC0008C879D87AE87BF876C857D858E859F8528
:102CD00020E030E04AEF54E40E941702DC01CB010F
:102CE00088879987AA87BB87688579858A859B8528
:102CF00020E030E040E85FE30E941D0488232CF4CC
:102D000081E090E09F838E833FC0688579858A85C6
:102D10009B8520E03FEF4FE757E40E94BD03181664
:102D20004CF56C857D858E859F8520E030E040E206
:102D300051E40E941702DC01CB01BC01CD010E94CD
:102D40004100DC01CB019F838E830FC088EC90E0B3
:102D50009D838C838C819D810197F1F79D838C836A
:102D60008E819F8101979F838E838E819F810097A3
:102D700069F724C0688579858A859B850E94410012
:102D8000DC01CB019F838E838E819F819B838A830D
:102D90008A819B810197F1F79B838A830FC06989A0
:102DA0007A898B899C890E944100DC01CB01888B48
:102DB0008889898389818A95F1F78983E2960FB69C
:102DC000F894DEBF0FBECDBFCF91DF9108950F9372
:102DD0001F93DF93CF93CDB7DEB7C455D0400FB666
:102DE000F894DEBF0FBECDBF82E062E040E00E94FB
:102DF0006212FE01EF5AFF4F80E090E0A0EFB1E4D5
:102E000080839183A283B3838E01035B1F4FFE01F6
:102E1000EF5AFF4F608171818281938120E030E021
:102E20004AEF54E40E941702DC01CB01F8018083D1
:102E30009183A283B383FE01E35BFF4F60817181C5
:102E40008281938120E030E040E85FE30E941D042E
:102E5000882344F4FE01E55BFF4F81E090E091831D
:102E6000808364C0FE01E35BFF4F608171818281DA
:102E7000938120E03FEF4FE757E40E94BD0318160F
:102E80000CF043C0FE01EF5AFF4F608171818281D7
:102E9000938120E030E040E251E40E941702DC011F
:102EA000CB018E01055B1F4FBC01CD010E9441008B
:102EB000DC01CB01F801918380831FC0FE01E75B39
:102EC000FF4F88EC90E091838083FE01E75BFF4F2A
:102ED000808191810197F1F7FE01E75BFF4F9183BC
:102EE0008083DE01A55BBF4FFE01E55BFF4F808164
:102EF0009181019711969C938E93FE01E55BFF4FA4
:102F0000808191810097D1F627C08E01055B1F4F0C
:102F1000FE01E35BFF4F60817181828193810E949A
:102F20004100DC01CB01F80191838083DE01A95BC4
:102F3000BF4FFE01E55BFF4F808191818D939C9394
:102F4000FE01E95BFF4F808191810197F1F7FE015E
:102F5000E95BFF4F9183808382E00E94141AFE0197
:102F6000ED5BFF4F80E090E0A0EAB0E480839183C6
:102F7000A283B3838E01015C1F4FFE01ED5BFF4F07
:102F8000608171818281938120E030E04AEF54E4D6
:102F90000E941702DC01CB01F80180839183A28398
:102FA000B383FE01FF96608171818281938120E06D
:102FB00030E040E85FE30E941D0488232CF481E0A8
:102FC00090E09EAF8DAF46C0FE01FF96608171819B
:102FD0008281938120E03FEF4FE757E40E94BD03D9
:102FE000181664F5FE01ED5BFF4F608171818281EF
:102FF000938120E030E040E251E40E941702DC01BE
:10300000CB01BC01CD010E944100DC01CB019EAF90
:103010008DAF0FC088EC90E09CAF8BAF8BAD9CADBB
:103020000197F1F79CAF8BAF8DAD9EAD01979EAF31
:103030008DAF8DAD9EAD009769F716C0FE01FF966E
:1030400060817181828193810E944100DC01CB010A
:103050009EAF8DAF8DAD9EAD9AAF89AF89AD9AAD64
:103060000197F1F79AAF89AF88E30E94141A80E0C4
:1030700090E0A0EAB0E48DAB9EABAFABB8AF6DA96A
:103080007EA98FA998AD20E030E04AEF54E40E9479
:103090001702DC01CB0189AB9AABABABBCAB69A926
:1030A0007AA98BA99CA920E030E040E85FE30E9468
:1030B0001D0488232CF481E090E098AB8FA73FC0DB
:1030C00069A97AA98BA99CA920E03FEF4FE757E4B3
:1030D0000E94BD0318164CF56DA97EA98FA998AD65
:1030E00020E030E040E251E40E941702DC01CB0115
:1030F000BC01CD010E944100DC01CB0198AB8FA740
:103100000FC088EC90E09EA78DA78DA59EA5019786
:10311000F1F79EA78DA78FA598A9019798AB8FA7C8
:103120008FA598A9009769F714C069A97AA98BA9F6
:103130009CA90E944100DC01CB0198AB8FA78FA511
:1031400098A99CA78BA78BA59CA50197F1F79CA795
:103150008BA78CE00E94141A80E090E0A0EAB0E413
:103160008FA398A7A9A7BAA76FA178A589A59AA5A3
:1031700020E030E04AEF54E40E941702DC01CB016A
:103180008BA39CA3ADA3BEA36BA17CA18DA19EA18B
:1031900020E030E040E85FE30E941D0488232CF427
:1031A00081E090E09AA389A33FC06BA17CA18DA18F
:1031B0009EA120E03FEF4FE757E40E94BD031816A1
:1031C0004CF56FA178A589A59AA520E030E040E2F2
:1031D00051E40E941702DC01CB01BC01CD010E9429
:1031E0004100DC01CB019AA389A30FC088EC90E0D9
:1031F00098A38F8F8F8D98A10197F1F798A38F8F48
:1032000089A19AA101979AA389A389A19AA100975C
:1032100069F714C06BA17CA18DA19EA10E94410001
:10322000DC01CB019AA389A389A19AA19E8F8D8FDE
:103230008D8D9E8D0197F1F79E8F8D8F81E00E947D
:10324000141A80E090E0A0EAB0E4898F9A8FAB8FE7
:10325000BC8F698D7A8D8B8D9C8D20E030E04AEF9C
:1032600054E40E941702DC01CB018D8B9E8BAF8B47
:10327000B88F6D897E898F89988D20E030E040E895
:103280005FE30E941D0488232CF481E090E09C8B76
:103290008B8B3FC06D897E898F89988D20E03FEFB1
:1032A0004FE757E40E94BD0318164CF5698D7A8DDF
:1032B0008B8D9C8D20E030E040E251E40E941702AB
:1032C000DC01CB01BC01CD010E944100DC01CB013E
:1032D0009C8B8B8B0FC088EC90E09A8B898B8989B3
:1032E0009A890197F1F79A8B898B8B899C89019731
:1032F0009C8B8B8B8B899C89009769F714C06D8997
:103300007E898F89988D0E944100DC01CB019C8BC6
:103310008B8B8B899C89988B8F878F859889019758
:10332000F1F7988B8F8786E00E94141A80E090E076
:10333000A0EAB0E48B879C87AD87BE876B857C85D0
:103340008D859E8520E030E04AEF54E40E9417020C
:10335000DC01CB018F839887A987BA876F81788535
:1033600089859A8520E030E040E85FE30E941D04F3
:1033700088232CF481E090E09E838D833FC06F8191
:10338000788589859A8520E03FEF4FE757E40E94D2
:10339000BD0318164CF56B857C858D859E8520E0D8
:1033A00030E040E251E40E941702DC01CB01BC0195
:1033B000CD010E944100DC01CB019E838D830FC0B3
:1033C00088EC90E09C838B838B819C810197F1F743
:1033D0009C838B838D819E8101979E838D838D81BC
:1033E0009E81009769F714C06F81788589859A85D9
:1033F0000E944100DC01CB019E838D838D819E81E3
:103400009A83898389819A810197F1F79A838983C5
:10341000CC5ADF4F0FB6F894DEBF0FBECDBFCF91B1
:10342000DF911F910F910895DF93CF93CDB7DEB752
:103430002F970FB6F894DEBF0FBECDBF8F8782E007
:1034400061E040E00E94621282E060E040E00E94A1
:10345000621282E062E040E00E94621283E06F85C7
:103460000E944A1482E062E041E00E94621280E021
:1034700090E0A0EAB0E48B879C87AD87BE876B8520
:103480007C858D859E8520E030E04AEF54E40E94E3
:103490001702DC01CB018F839887A987BA876F81D8
:1034A000788589859A8520E030E040E85FE30E94D6
:1034B0001D0488232CF481E090E09E838D833FC01F
:1034C0006F81788589859A8520E03FEF4FE757E443
:1034D0000E94BD0318164CF56B857C858D859E85F5
:1034E00020E030E040E251E40E941702DC01CB0111
:1034F000BC01CD010E944100DC01CB019E838D8384
:103500000FC088EC90E09C838B838B819C8101971A
:10351000F1F79C838B838D819E8101979E838D83A0
:103520008D819E81009769F714C06F8178858985A8
:103530009A850E944100DC01CB019E838D838D81A1
:103540009E819A83898389819A810197F1F79A8371
:10355000898382E062E040E00E9462122F960FB6FB
:10356000F894DEBF0FBECDBFCF91DF910895DF93FA
:10357000CF93CDB7DEB72F970FB6F894DEBF0FBE4F
:10358000CDBF8F8782E061E041E00E94621282E05D
:1035900060E040E00E94621282E062E040E00E944F
:1035A000621283E06F850E944A1482E062E041E08B
:1035B0000E94621280E090E0A0EAB0E48B879C87D2
:1035C000AD87BE876B857C858D859E8520E030E04C
:1035D0004AEF54E40E941702DC01CB018F839887E5
:1035E000A987BA876F81788589859A8520E030E040
:1035F00040E85FE30E941D0488232CF481E090E002
:103600009E838D833FC06F81788589859A8520E070
:103610003FEF4FE757E40E94BD0318164CF56B854A
:103620007C858D859E8520E030E040E251E40E945B
:103630001702DC01CB01BC01CD010E944100DC017D
:10364000CB019E838D830FC088EC90E09C838B839D
:103650008B819C810197F1F79C838B838D819E8167
:1036600001979E838D838D819E81009769F714C099
:103670006F81788589859A850E944100DC01CB01A4
:103680009E838D838D819E819A83898389819A818E
:103690000197F1F79A83898382E062E040E00E941B
:1036A00062122F960FB6F894DEBF0FBECDBFCF913A
:1036B000DF910895DF93CF9300D000D0CDB7DEB770
:1036C0009B838A836C83198219820EC08981282F7B
:1036D00030E08A819B81FC01E20FF31F80810E9410
:1036E000B71A89818F5F898399818C81981770F3CC
:1036F0000F900F900F900F90CF91DF910895DF936F
:10370000CF9300D000D0CDB7DEB789836A838A819A
:103710008131C8F48981282F30E03C832B838B8151
:103720009C818130910531F02B813C812230310523
:1037300031F009C08A8180580E94141A04C08A811D
:1037400080540E94141A0F900F900F900F90CF91F9
:10375000DF910895DF93CF930F92CDB7DEB780E46A
:103760000E94141A19820CC08981882F90E0FC01F4
:10377000E859FE4F80810E94B71A89818F5F898343
:103780008981803488F381E060E00E947F1B0F9084
:10379000CF91DF910895DF93CF93CDB7DEB72E970A
:1037A0000FB6F894DEBF0FBECDBF69877A878B87CF
:1037B0009C874D872E87188689859A85AB85BC8521
:1037C000BB238CF489859A85AB85BC85B095A09583
:1037D000909581959F4FAF4FBF4F89879A87AB8751
:1037E000BC8781E088871F8289859A85AB85BC85E7
:1037F0008B839C83AD83BE8315C08F818F5F8F8346
:103800008B819C81AD81BE812AE030E040E050E0B8
:10381000BC01CD010E94A91EDA01C9018B839C83E2
:10382000AD83BE838B819C81AD81BE810097A10554
:10383000B10519F71A8235C089859A85AB85BC8593
:103840002AE030E040E050E0BC01CD010E94A91E1A
:10385000DC01CB0189839E858F81980F8A81292F76
:10386000281B822F982F91508D85692F0E947F1BD6
:103870008981805D0E94B71A89859A85AB85BC8550
:103880002AE030E040E050E0BC01CD010E94A91EDA
:10389000DA01C90189879A87AB87BC878A818F5FE4
:1038A0008A839A818F81981738F28885882381F0DE
:1038B0009E858F81980F8A81292F281B822F982F10
:1038C00091508D85692F0E947F1B8DE20E94B71A4F
:1038D0002E960FB6F894DEBF0FBECDBFCF91DF910D
:1038E0000895DF93CF93CDB7DEB780E060E040E08E
:1038F0000E94621180E061E040E00E94621180E07D
:1039000062E040E00E94621180E063E040E00E94DB
:10391000621180E060E041E00E94621280E061E0BC
:1039200041E00E94621280E062E041E00E94621287
:1039300080E063E041E00E94621280E064E041E0E8
:103940000E94621180E065E041E00E94621180E027
:1039500066E041E00E94621180E067E041E00E9481
:10396000621180E064E041E00E94621280E065E064
:1039700041E00E94621280E066E041E00E94621233
:1039800080E067E041E00E946212CF91DF910895EC
:10399000DF93CF9300D000D00F92CDB7DEB78FEF7B
:1039A00089831B8257C08B81882F90E0FC01EC56E5
:1039B000FE4F908180E0692F40E00E9462121A82DF
:1039C00037C08A81882F90E0FC01E057FE4F90813C
:1039D00080E0692F0E9454138C838C81882329F501
:1039E0008A81482F50E08B81282F30E0CA01880F50
:1039F000991F880F991F820F931FFC01E856FE4FF5
:103A0000808189830CC08A81882F90E0FC01E05777
:103A1000FE4F908180E0692F0E9454138C838C812B
:103A2000882389F389818D831BC08A818F5F8A8374
:103A30008A81843030F28B81882F90E0FC01EC5633
:103A4000FE4F908180E0692F41E00E9462128B81DD
:103A50008F5F8B838B81843008F4A5CF89818D8320
:103A60008D810F900F900F900F900F90CF91DF915D
:103A70000895DF93CF93CDB7DEB7AA970FB6F8942A
:103A8000DEBF0FBECDBF0E940D150E946D070E94C4
:103A9000A6088AE50E94191580E090E0AAE7B4E440
:103AA0008FA398A7A9A7BAA76FA178A589A59AA55A
:103AB00020E030E04AEF54E40E941702DC01CB0121
:103AC0008BA39CA3ADA3BEA36BA17CA18DA19EA142
:103AD00020E030E040E85FE30E941D0488232CF4DE
:103AE00081E090E09AA389A33FC06BA17CA18DA146
:103AF0009EA120E03FEF4FE757E40E94BD03181658
:103B00004CF56FA178A589A59AA520E030E040E2A8
:103B100051E40E941702DC01CB01BC01CD010E94DF
:103B20004100DC01CB019AA389A30FC088EC90E08F
:103B300098A38F8F8F8D98A10197F1F798A38F8FFE
:103B400089A19AA101979AA389A389A19AA1009713
:103B500069F714C06BA17CA18DA19EA10E944100B8
:103B6000DC01CB019AA389A389A19AA19E8F8D8F95
:103B70008D8D9E8D0197F1F79E8F8D8F80E00E9435
:103B8000191580E090E0AAE7B4E4898F9A8FAB8F93
:103B9000BC8F698D7A8D8B8D9C8D20E030E04AEF53
:103BA00054E40E941702DC01CB018D8B9E8BAF8BFE
:103BB000B88F6D897E898F89988D20E030E040E84C
:103BC0005FE30E941D0488232CF481E090E09C8B2D
:103BD0008B8B3FC06D897E898F89988D20E03FEF68
:103BE0004FE757E40E94BD0318164CF5698D7A8D96
:103BF0008B8D9C8D20E030E040E251E40E94170262
:103C0000DC01CB01BC01CD010E944100DC01CB01F4
:103C10009C8B8B8B0FC088EC90E09A8B898B898969
:103C20009A890197F1F79A8B898B8B899C890197E7
:103C30009C8B8B8B8B899C89009769F714C06D894D
:103C40007E898F89988D0E944100DC01CB019C8B7D
:103C50008B8B8B899C89988B8F878F85988901970F
:103C6000F1F7988B8F8786EA0E94191580E090E023
:103C7000AAE7B4E48B879C87AD87BE876B857C857C
:103C80008D859E8520E030E04AEF54E40E941702C3
:103C9000DC01CB018F839887A987BA876F817885EC
:103CA00089859A8520E030E040E85FE30E941D04AA
:103CB00088232CF481E090E09E838D833FC06F8148
:103CC000788589859A8520E03FEF4FE757E40E9489
:103CD000BD0318164CF56B857C858D859E8520E08F
:103CE00030E040E251E40E941702DC01CB01BC014C
:103CF000CD010E944100DC01CB019E838D830FC06A
:103D000088EC90E09C838B838B819C810197F1F7F9
:103D10009C838B838D819E8101979E838D838D8172
:103D20009E81009769F7B5CE6F81788589859A85E0
:103D30000E944100DC01CB019E838D838D819E8199
:103D40009A83898389819A810197F1F79A8389837C
:103D5000A0CE97FB092E05260ED057FD04D014D017
:103D60000AD0001C38F450954095309521953F4F6E
:103D70004F4F5F4F0895F6F7909580957095619538
:103D80007F4F8F4F9F4F0895A1E21A2EAA1BBB1B96
:103D9000FD010DC0AA1FBB1FEE1FFF1FA217B30717
:103DA000E407F50720F0A21BB30BE40BF50B661F2D
:103DB000771F881F991F1A9469F7609570958095F1
:103DC00090959B01AC01BD01CF0108952F923F92C8
:103DD0004F925F926F927F928F929F92AF92BF921B
:103DE000CF92DF92EF92FF920F931F93CF93DF93C7
:103DF000CDB7DEB7CA1BDB0B0FB6F894DEBF0FBE24
:103E0000CDBF09942A88398848885F846E847D8470
:103E10008C849B84AA84B984C884DF80EE80FD8072
:103E20000C811B81AA81B981CE0FD11D0FB6F894E8
:0E3E3000DEBF0FBECDBFED010895F894FFCFA9
:103E3E000000000000000000000102020303030363
:103E4E00040404040404040405050505050505051C
:103E5E0005050505050505050606060606060606FC
:103E6E0006060606060606060606060606060606E4
:103E7E0006060606060606060707070707070707CC
:103E8E0007070707070707070707070707070707B4
:103E9E0007070707070707070707070707070707A4
:103EAE000707070707070707070707070707070794
:103EBE00070707070707070708080808080808087C
:103ECE000808080808080808080808080808080864
:103EDE000808080808080808080808080808080854
:103EEE000808080808080808080808080808080844
:103EFE000808080808080808080808080808080834
:103F0E000808080808080808080808080808080823
:103F1E000808080808080808080808080808080813
:103F2E000808080808080808080808080808080803
:103F3E0008080808080808080000071D0700000008
:103F4E000000000102040000000705070106000042
:103F5E00040404040400000000000411110E00000B
:103F6E0000010203040506073132332D3435362B9A
:083F7E003738392A2F30233DAA
:00000001FF
